{
  "contractName": "Color",
  "abi": [
    {
      "inputs": [],
      "stateMutability": "nonpayable",
      "type": "constructor"
    },
    {
      "anonymous": false,
      "inputs": [
        {
          "indexed": true,
          "internalType": "address",
          "name": "owner",
          "type": "address"
        },
        {
          "indexed": true,
          "internalType": "address",
          "name": "approved",
          "type": "address"
        },
        {
          "indexed": true,
          "internalType": "uint256",
          "name": "tokenId",
          "type": "uint256"
        }
      ],
      "name": "Approval",
      "type": "event"
    },
    {
      "anonymous": false,
      "inputs": [
        {
          "indexed": true,
          "internalType": "address",
          "name": "owner",
          "type": "address"
        },
        {
          "indexed": true,
          "internalType": "address",
          "name": "operator",
          "type": "address"
        },
        {
          "indexed": false,
          "internalType": "bool",
          "name": "approved",
          "type": "bool"
        }
      ],
      "name": "ApprovalForAll",
      "type": "event"
    },
    {
      "anonymous": false,
      "inputs": [
        {
          "indexed": true,
          "internalType": "address",
          "name": "from",
          "type": "address"
        },
        {
          "indexed": true,
          "internalType": "address",
          "name": "to",
          "type": "address"
        },
        {
          "indexed": true,
          "internalType": "uint256",
          "name": "tokenId",
          "type": "uint256"
        }
      ],
      "name": "Transfer",
      "type": "event"
    },
    {
      "inputs": [],
      "name": "admin",
      "outputs": [
        {
          "internalType": "address",
          "name": "",
          "type": "address"
        }
      ],
      "stateMutability": "view",
      "type": "function"
    },
    {
      "inputs": [
        {
          "internalType": "address",
          "name": "to",
          "type": "address"
        },
        {
          "internalType": "uint256",
          "name": "tokenId",
          "type": "uint256"
        }
      ],
      "name": "approve",
      "outputs": [],
      "stateMutability": "nonpayable",
      "type": "function"
    },
    {
      "inputs": [
        {
          "internalType": "address",
          "name": "owner",
          "type": "address"
        }
      ],
      "name": "balanceOf",
      "outputs": [
        {
          "internalType": "uint256",
          "name": "",
          "type": "uint256"
        }
      ],
      "stateMutability": "view",
      "type": "function"
    },
    {
      "inputs": [
        {
          "internalType": "uint256",
          "name": "",
          "type": "uint256"
        }
      ],
      "name": "colors",
      "outputs": [
        {
          "internalType": "string",
          "name": "",
          "type": "string"
        }
      ],
      "stateMutability": "view",
      "type": "function"
    },
    {
      "inputs": [
        {
          "internalType": "uint256",
          "name": "tokenId",
          "type": "uint256"
        }
      ],
      "name": "getApproved",
      "outputs": [
        {
          "internalType": "address",
          "name": "",
          "type": "address"
        }
      ],
      "stateMutability": "view",
      "type": "function"
    },
    {
      "inputs": [
        {
          "internalType": "address",
          "name": "owner",
          "type": "address"
        },
        {
          "internalType": "address",
          "name": "operator",
          "type": "address"
        }
      ],
      "name": "isApprovedForAll",
      "outputs": [
        {
          "internalType": "bool",
          "name": "",
          "type": "bool"
        }
      ],
      "stateMutability": "view",
      "type": "function"
    },
    {
      "inputs": [],
      "name": "name",
      "outputs": [
        {
          "internalType": "string",
          "name": "",
          "type": "string"
        }
      ],
      "stateMutability": "view",
      "type": "function"
    },
    {
      "inputs": [],
      "name": "nextTokenId",
      "outputs": [
        {
          "internalType": "uint256",
          "name": "",
          "type": "uint256"
        }
      ],
      "stateMutability": "view",
      "type": "function"
    },
    {
      "inputs": [
        {
          "internalType": "uint256",
          "name": "tokenId",
          "type": "uint256"
        }
      ],
      "name": "ownerOf",
      "outputs": [
        {
          "internalType": "address",
          "name": "",
          "type": "address"
        }
      ],
      "stateMutability": "view",
      "type": "function"
    },
    {
      "inputs": [
        {
          "internalType": "address",
          "name": "from",
          "type": "address"
        },
        {
          "internalType": "address",
          "name": "to",
          "type": "address"
        },
        {
          "internalType": "uint256",
          "name": "tokenId",
          "type": "uint256"
        }
      ],
      "name": "safeTransferFrom",
      "outputs": [],
      "stateMutability": "nonpayable",
      "type": "function"
    },
    {
      "inputs": [
        {
          "internalType": "address",
          "name": "from",
          "type": "address"
        },
        {
          "internalType": "address",
          "name": "to",
          "type": "address"
        },
        {
          "internalType": "uint256",
          "name": "tokenId",
          "type": "uint256"
        },
        {
          "internalType": "bytes",
          "name": "_data",
          "type": "bytes"
        }
      ],
      "name": "safeTransferFrom",
      "outputs": [],
      "stateMutability": "nonpayable",
      "type": "function"
    },
    {
      "inputs": [
        {
          "internalType": "address",
          "name": "operator",
          "type": "address"
        },
        {
          "internalType": "bool",
          "name": "approved",
          "type": "bool"
        }
      ],
      "name": "setApprovalForAll",
      "outputs": [],
      "stateMutability": "nonpayable",
      "type": "function"
    },
    {
      "inputs": [
        {
          "internalType": "bytes4",
          "name": "interfaceId",
          "type": "bytes4"
        }
      ],
      "name": "supportsInterface",
      "outputs": [
        {
          "internalType": "bool",
          "name": "",
          "type": "bool"
        }
      ],
      "stateMutability": "view",
      "type": "function"
    },
    {
      "inputs": [],
      "name": "symbol",
      "outputs": [
        {
          "internalType": "string",
          "name": "",
          "type": "string"
        }
      ],
      "stateMutability": "view",
      "type": "function"
    },
    {
      "inputs": [
        {
          "internalType": "uint256",
          "name": "tokenId",
          "type": "uint256"
        }
      ],
      "name": "tokenURI",
      "outputs": [
        {
          "internalType": "string",
          "name": "",
          "type": "string"
        }
      ],
      "stateMutability": "view",
      "type": "function"
    },
    {
      "inputs": [
        {
          "internalType": "address",
          "name": "from",
          "type": "address"
        },
        {
          "internalType": "address",
          "name": "to",
          "type": "address"
        },
        {
          "internalType": "uint256",
          "name": "tokenId",
          "type": "uint256"
        }
      ],
      "name": "transferFrom",
      "outputs": [],
      "stateMutability": "nonpayable",
      "type": "function"
    },
    {
      "inputs": [
        {
          "internalType": "string",
          "name": "_color",
          "type": "string"
        }
      ],
      "name": "mint",
      "outputs": [],
      "stateMutability": "nonpayable",
      "type": "function"
    },
    {
      "inputs": [
        {
          "internalType": "address",
          "name": "from",
          "type": "address"
        },
        {
          "internalType": "address",
          "name": "to",
          "type": "address"
        },
        {
          "internalType": "uint256",
          "name": "tokenId",
          "type": "uint256"
        }
      ],
      "name": "transfer",
      "outputs": [],
      "stateMutability": "nonpayable",
      "type": "function"
    },
    {
      "inputs": [],
      "name": "getTokenCountOfAddress",
      "outputs": [
        {
          "internalType": "uint256",
          "name": "",
          "type": "uint256"
        }
      ],
      "stateMutability": "view",
      "type": "function"
    },
    {
      "inputs": [],
      "name": "tokensOfOwner",
      "outputs": [
        {
          "internalType": "uint256[]",
          "name": "",
          "type": "uint256[]"
        }
      ],
      "stateMutability": "view",
      "type": "function"
    }
  ],
  "bytecode": "0x60806040523480156200001157600080fd5b506040518060400160405280600981526020017f436f6c6f72204e465400000000000000000000000000000000000000000000008152506040518060400160405280600581526020017f434f4c4f52000000000000000000000000000000000000000000000000000000815250816000908051906020019062000096929190620000f9565b508060019080519060200190620000af929190620000f9565b50505033600960006101000a81548173ffffffffffffffffffffffffffffffffffffffff021916908373ffffffffffffffffffffffffffffffffffffffff1602179055506200020e565b8280546200010790620001a9565b90600052602060002090601f0160209004810192826200012b576000855562000177565b82601f106200014657805160ff191683800117855562000177565b8280016001018555821562000177579182015b828111156200017657825182559160200191906001019062000159565b5b5090506200018691906200018a565b5090565b5b80821115620001a55760008160009055506001016200018b565b5090565b60006002820490506001821680620001c257607f821691505b60208210811415620001d957620001d8620001df565b5b50919050565b7f4e487b7100000000000000000000000000000000000000000000000000000000600052602260045260246000fd5b612dba806200021e6000396000f3fe608060405234801561001057600080fd5b506004361061012c5760003560e01c806395ea0f12116100ad578063c87b56dd11610071578063c87b56dd14610341578063d85d3d2714610371578063db4d803c1461038d578063e985e9c5146103ab578063f851a440146103db5761012c565b806395ea0f121461029f578063a22cb465146102bd578063b88d4fde146102d9578063bd11f69d146102f5578063beabacc8146103255761012c565b806342842e0e116100f457806342842e0e146101e75780636352211e1461020357806370a082311461023357806375794a3c1461026357806395d89b41146102815761012c565b806301ffc9a71461013157806306fdde0314610161578063081812fc1461017f578063095ea7b3146101af57806323b872dd146101cb575b600080fd5b61014b60048036038101906101469190611ec2565b6103f9565b60405161015891906126f9565b60405180910390f35b6101696104db565b6040516101769190612714565b60405180910390f35b61019960048036038101906101949190611f55565b61056d565b6040516101a69190612670565b60405180910390f35b6101c960048036038101906101c49190611e86565b6105f2565b005b6101e560048036038101906101e09190611d80565b61070a565b005b61020160048036038101906101fc9190611d80565b61076a565b005b61021d60048036038101906102189190611f55565b61078a565b60405161022a9190612670565b60405180910390f35b61024d60048036038101906102489190611d1b565b61083c565b60405161025a9190612916565b60405180910390f35b61026b6108f4565b6040516102789190612916565b60405180910390f35b6102896108fa565b6040516102969190612714565b60405180910390f35b6102a761098c565b6040516102b491906126d7565b60405180910390f35b6102d760048036038101906102d29190611e4a565b610b57565b005b6102f360048036038101906102ee9190611dcf565b610cd8565b005b61030f600480360381019061030a9190611f55565b610d3a565b60405161031c9190612714565b60405180910390f35b61033f600480360381019061033a9190611d80565b610de6565b005b61035b60048036038101906103569190611f55565b610e00565b6040516103689190612714565b60405180910390f35b61038b60048036038101906103869190611f14565b610ea7565b005b610395611007565b6040516103a29190612916565b60405180910390f35b6103c560048036038101906103c09190611d44565b611017565b6040516103d291906126f9565b60405180910390f35b6103e36110ab565b6040516103f09190612670565b60405180910390f35b60007f80ac58cd000000000000000000000000000000000000000000000000000000007bffffffffffffffffffffffffffffffffffffffffffffffffffffffff1916827bffffffffffffffffffffffffffffffffffffffffffffffffffffffff191614806104c457507f5b5e139f000000000000000000000000000000000000000000000000000000007bffffffffffffffffffffffffffffffffffffffffffffffffffffffff1916827bffffffffffffffffffffffffffffffffffffffffffffffffffffffff1916145b806104d457506104d3826110d1565b5b9050919050565b6060600080546104ea90612baf565b80601f016020809104026020016040519081016040528092919081815260200182805461051690612baf565b80156105635780601f1061053857610100808354040283529160200191610563565b820191906000526020600020905b81548152906001019060200180831161054657829003601f168201915b5050505050905090565b60006105788261113b565b6105b7576040517f08c379a00000000000000000000000000000000000000000000000000000000081526004016105ae90612876565b60405180910390fd5b6004600083815260200190815260200160002060009054906101000a900473ffffffffffffffffffffffffffffffffffffffff169050919050565b60006105fd8261078a565b90508073ffffffffffffffffffffffffffffffffffffffff168373ffffffffffffffffffffffffffffffffffffffff16141561066e576040517f08c379a0000000000000000000000000000000000000000000000000000000008152600401610665906128d6565b60405180910390fd5b8073ffffffffffffffffffffffffffffffffffffffff1661068d6111a7565b73ffffffffffffffffffffffffffffffffffffffff1614806106bc57506106bb816106b66111a7565b611017565b5b6106fb576040517f08c379a00000000000000000000000000000000000000000000000000000000081526004016106f2906127f6565b60405180910390fd5b61070583836111af565b505050565b61071b6107156111a7565b82611268565b61075a576040517f08c379a0000000000000000000000000000000000000000000000000000000008152600401610751906128f6565b60405180910390fd5b610765838383611346565b505050565b61078583838360405180602001604052806000815250610cd8565b505050565b6000806002600084815260200190815260200160002060009054906101000a900473ffffffffffffffffffffffffffffffffffffffff169050600073ffffffffffffffffffffffffffffffffffffffff168173ffffffffffffffffffffffffffffffffffffffff161415610833576040517f08c379a000000000000000000000000000000000000000000000000000000000815260040161082a90612836565b60405180910390fd5b80915050919050565b60008073ffffffffffffffffffffffffffffffffffffffff168273ffffffffffffffffffffffffffffffffffffffff1614156108ad576040517f08c379a00000000000000000000000000000000000000000000000000000000081526004016108a490612816565b60405180910390fd5b600360008373ffffffffffffffffffffffffffffffffffffffff1673ffffffffffffffffffffffffffffffffffffffff168152602001908152602001600020549050919050565b60065481565b60606001805461090990612baf565b80601f016020809104026020016040519081016040528092919081815260200182805461093590612baf565b80156109825780601f1061095757610100808354040283529160200191610982565b820191906000526020600020905b81548152906001019060200180831161096557829003601f168201915b5050505050905090565b606060006109993361083c565b90506000811415610a1c57600067ffffffffffffffff8111156109e5577f4e487b7100000000000000000000000000000000000000000000000000000000600052604160045260246000fd5b604051908082528060200260200182016040528015610a135781602001602082028036833780820191505090505b50915050610b54565b60008167ffffffffffffffff811115610a5e577f4e487b7100000000000000000000000000000000000000000000000000000000600052604160045260246000fd5b604051908082528060200260200182016040528015610a8c5781602001602082028036833780820191505090505b5090506000805b6002600654610aa29190612ac5565b8111610b4c573373ffffffffffffffffffffffffffffffffffffffff16610ac88261078a565b73ffffffffffffffffffffffffffffffffffffffff161415610b395780838381518110610b1e577f4e487b7100000000000000000000000000000000000000000000000000000000600052603260045260246000fd5b6020026020010181815250508180610b3590612be1565b9250505b8080610b4490612be1565b915050610a93565b829450505050505b90565b610b5f6111a7565b73ffffffffffffffffffffffffffffffffffffffff168273ffffffffffffffffffffffffffffffffffffffff161415610bcd576040517f08c379a0000000000000000000000000000000000000000000000000000000008152600401610bc490612796565b60405180910390fd5b8060056000610bda6111a7565b73ffffffffffffffffffffffffffffffffffffffff1673ffffffffffffffffffffffffffffffffffffffff16815260200190815260200160002060008473ffffffffffffffffffffffffffffffffffffffff1673ffffffffffffffffffffffffffffffffffffffff16815260200190815260200160002060006101000a81548160ff0219169083151502179055508173ffffffffffffffffffffffffffffffffffffffff16610c876111a7565b73ffffffffffffffffffffffffffffffffffffffff167f17307eab39ab6107e8899845ad3d59bd9653f200f220920489ca2b5937696c3183604051610ccc91906126f9565b60405180910390a35050565b610ce9610ce36111a7565b83611268565b610d28576040517f08c379a0000000000000000000000000000000000000000000000000000000008152600401610d1f906128f6565b60405180910390fd5b610d34848484846115a2565b50505050565b60078181548110610d4a57600080fd5b906000526020600020016000915090508054610d6590612baf565b80601f0160208091040260200160405190810160405280929190818152602001828054610d9190612baf565b8015610dde5780601f10610db357610100808354040283529160200191610dde565b820191906000526020600020905b815481529060010190602001808311610dc157829003601f168201915b505050505081565b610df083826105f2565b610dfb83838361076a565b505050565b6060610e0b8261113b565b610e4a576040517f08c379a0000000000000000000000000000000000000000000000000000000008152600401610e41906128b6565b60405180910390fd5b6000610e546115fe565b90506000815111610e745760405180602001604052806000815250610e9f565b80610e7e84611615565b604051602001610e8f92919061264c565b6040516020818303038152906040525b915050919050565b600960009054906101000a900473ffffffffffffffffffffffffffffffffffffffff1673ffffffffffffffffffffffffffffffffffffffff163373ffffffffffffffffffffffffffffffffffffffff1614610f37576040517f08c379a0000000000000000000000000000000000000000000000000000000008152600401610f2e906127b6565b60405180910390fd5b600881604051610f479190612635565b908152602001604051809103902060009054906101000a900460ff1615610f6d57600080fd5b600781908060018154018082558091505060019003906000526020600020016000909190919091509080519060200190610fa8929190611b3f565b50610fb5336006546117c2565b6001600882604051610fc79190612635565b908152602001604051809103902060006101000a81548160ff02191690831515021790555060066000815480929190610fff90612be1565b919050555050565b60006110123361083c565b905090565b6000600560008473ffffffffffffffffffffffffffffffffffffffff1673ffffffffffffffffffffffffffffffffffffffff16815260200190815260200160002060008373ffffffffffffffffffffffffffffffffffffffff1673ffffffffffffffffffffffffffffffffffffffff16815260200190815260200160002060009054906101000a900460ff16905092915050565b600960009054906101000a900473ffffffffffffffffffffffffffffffffffffffff1681565b60007f01ffc9a7000000000000000000000000000000000000000000000000000000007bffffffffffffffffffffffffffffffffffffffffffffffffffffffff1916827bffffffffffffffffffffffffffffffffffffffffffffffffffffffff1916149050919050565b60008073ffffffffffffffffffffffffffffffffffffffff166002600084815260200190815260200160002060009054906101000a900473ffffffffffffffffffffffffffffffffffffffff1673ffffffffffffffffffffffffffffffffffffffff1614159050919050565b600033905090565b816004600083815260200190815260200160002060006101000a81548173ffffffffffffffffffffffffffffffffffffffff021916908373ffffffffffffffffffffffffffffffffffffffff160217905550808273ffffffffffffffffffffffffffffffffffffffff166112228361078a565b73ffffffffffffffffffffffffffffffffffffffff167f8c5be1e5ebec7d5bd14f71427d1e84f3dd0314c0f7b2291e5b200ac8c7c3b92560405160405180910390a45050565b60006112738261113b565b6112b2576040517f08c379a00000000000000000000000000000000000000000000000000000000081526004016112a9906127d6565b60405180910390fd5b60006112bd8361078a565b90508073ffffffffffffffffffffffffffffffffffffffff168473ffffffffffffffffffffffffffffffffffffffff16148061132c57508373ffffffffffffffffffffffffffffffffffffffff166113148461056d565b73ffffffffffffffffffffffffffffffffffffffff16145b8061133d575061133c8185611017565b5b91505092915050565b8273ffffffffffffffffffffffffffffffffffffffff166113668261078a565b73ffffffffffffffffffffffffffffffffffffffff16146113bc576040517f08c379a00000000000000000000000000000000000000000000000000000000081526004016113b390612896565b60405180910390fd5b600073ffffffffffffffffffffffffffffffffffffffff168273ffffffffffffffffffffffffffffffffffffffff16141561142c576040517f08c379a000000000000000000000000000000000000000000000000000000000815260040161142390612776565b60405180910390fd5b611437838383611990565b6114426000826111af565b6001600360008573ffffffffffffffffffffffffffffffffffffffff1673ffffffffffffffffffffffffffffffffffffffff16815260200190815260200160002060008282546114929190612ac5565b925050819055506001600360008473ffffffffffffffffffffffffffffffffffffffff1673ffffffffffffffffffffffffffffffffffffffff16815260200190815260200160002060008282546114e99190612a3e565b92505081905550816002600083815260200190815260200160002060006101000a81548173ffffffffffffffffffffffffffffffffffffffff021916908373ffffffffffffffffffffffffffffffffffffffff160217905550808273ffffffffffffffffffffffffffffffffffffffff168473ffffffffffffffffffffffffffffffffffffffff167fddf252ad1be2c89b69c2b068fc378daa952ba7f163c4a11628f55a4df523b3ef60405160405180910390a4505050565b6115ad848484611346565b6115b984848484611995565b6115f8576040517f08c379a00000000000000000000000000000000000000000000000000000000081526004016115ef90612736565b60405180910390fd5b50505050565b606060405180602001604052806000815250905090565b6060600082141561165d576040518060400160405280600181526020017f300000000000000000000000000000000000000000000000000000000000000081525090506117bd565b600082905060005b6000821461168f57808061167890612be1565b915050600a826116889190612a94565b9150611665565b60008167ffffffffffffffff8111156116d1577f4e487b7100000000000000000000000000000000000000000000000000000000600052604160045260246000fd5b6040519080825280601f01601f1916602001820160405280156117035781602001600182028036833780820191505090505b5090505b600085146117b65760018261171c9190612ac5565b9150600a8561172b9190612c2a565b60306117379190612a3e565b60f81b818381518110611773577f4e487b7100000000000000000000000000000000000000000000000000000000600052603260045260246000fd5b60200101907effffffffffffffffffffffffffffffffffffffffffffffffffffffffffffff1916908160001a905350600a856117af9190612a94565b9450611707565b8093505050505b919050565b600073ffffffffffffffffffffffffffffffffffffffff168273ffffffffffffffffffffffffffffffffffffffff161415611832576040517f08c379a000000000000000000000000000000000000000000000000000000000815260040161182990612856565b60405180910390fd5b61183b8161113b565b1561187b576040517f08c379a000000000000000000000000000000000000000000000000000000000815260040161187290612756565b60405180910390fd5b61188760008383611990565b6001600360008473ffffffffffffffffffffffffffffffffffffffff1673ffffffffffffffffffffffffffffffffffffffff16815260200190815260200160002060008282546118d79190612a3e565b92505081905550816002600083815260200190815260200160002060006101000a81548173ffffffffffffffffffffffffffffffffffffffff021916908373ffffffffffffffffffffffffffffffffffffffff160217905550808273ffffffffffffffffffffffffffffffffffffffff16600073ffffffffffffffffffffffffffffffffffffffff167fddf252ad1be2c89b69c2b068fc378daa952ba7f163c4a11628f55a4df523b3ef60405160405180910390a45050565b505050565b60006119b68473ffffffffffffffffffffffffffffffffffffffff16611b2c565b15611b1f578373ffffffffffffffffffffffffffffffffffffffff1663150b7a026119df6111a7565b8786866040518563ffffffff1660e01b8152600401611a01949392919061268b565b602060405180830381600087803b158015611a1b57600080fd5b505af1925050508015611a4c57506040513d601f19601f82011682018060405250810190611a499190611eeb565b60015b611acf573d8060008114611a7c576040519150601f19603f3d011682016040523d82523d6000602084013e611a81565b606091505b50600081511415611ac7576040517f08c379a0000000000000000000000000000000000000000000000000000000008152600401611abe90612736565b60405180910390fd5b805181602001fd5b63150b7a0260e01b7bffffffffffffffffffffffffffffffffffffffffffffffffffffffff1916817bffffffffffffffffffffffffffffffffffffffffffffffffffffffff191614915050611b24565b600190505b949350505050565b600080823b905060008111915050919050565b828054611b4b90612baf565b90600052602060002090601f016020900481019282611b6d5760008555611bb4565b82601f10611b8657805160ff1916838001178555611bb4565b82800160010185558215611bb4579182015b82811115611bb3578251825591602001919060010190611b98565b5b509050611bc19190611bc5565b5090565b5b80821115611bde576000816000905550600101611bc6565b5090565b6000611bf5611bf084612962565b612931565b905082815260208101848484011115611c0d57600080fd5b611c18848285612b6d565b509392505050565b6000611c33611c2e84612992565b612931565b905082815260208101848484011115611c4b57600080fd5b611c56848285612b6d565b509392505050565b600081359050611c6d81612d28565b92915050565b600081359050611c8281612d3f565b92915050565b600081359050611c9781612d56565b92915050565b600081519050611cac81612d56565b92915050565b600082601f830112611cc357600080fd5b8135611cd3848260208601611be2565b91505092915050565b600082601f830112611ced57600080fd5b8135611cfd848260208601611c20565b91505092915050565b600081359050611d1581612d6d565b92915050565b600060208284031215611d2d57600080fd5b6000611d3b84828501611c5e565b91505092915050565b60008060408385031215611d5757600080fd5b6000611d6585828601611c5e565b9250506020611d7685828601611c5e565b9150509250929050565b600080600060608486031215611d9557600080fd5b6000611da386828701611c5e565b9350506020611db486828701611c5e565b9250506040611dc586828701611d06565b9150509250925092565b60008060008060808587031215611de557600080fd5b6000611df387828801611c5e565b9450506020611e0487828801611c5e565b9350506040611e1587828801611d06565b925050606085013567ffffffffffffffff811115611e3257600080fd5b611e3e87828801611cb2565b91505092959194509250565b60008060408385031215611e5d57600080fd5b6000611e6b85828601611c5e565b9250506020611e7c85828601611c73565b9150509250929050565b60008060408385031215611e9957600080fd5b6000611ea785828601611c5e565b9250506020611eb885828601611d06565b9150509250929050565b600060208284031215611ed457600080fd5b6000611ee284828501611c88565b91505092915050565b600060208284031215611efd57600080fd5b6000611f0b84828501611c9d565b91505092915050565b600060208284031215611f2657600080fd5b600082013567ffffffffffffffff811115611f4057600080fd5b611f4c84828501611cdc565b91505092915050565b600060208284031215611f6757600080fd5b6000611f7584828501611d06565b91505092915050565b6000611f8a8383612617565b60208301905092915050565b611f9f81612af9565b82525050565b6000611fb0826129d2565b611fba8185612a00565b9350611fc5836129c2565b8060005b83811015611ff6578151611fdd8882611f7e565b9750611fe8836129f3565b925050600181019050611fc9565b5085935050505092915050565b61200c81612b0b565b82525050565b600061201d826129dd565b6120278185612a11565b9350612037818560208601612b7c565b61204081612d17565b840191505092915050565b6000612056826129e8565b6120608185612a22565b9350612070818560208601612b7c565b61207981612d17565b840191505092915050565b600061208f826129e8565b6120998185612a33565b93506120a9818560208601612b7c565b80840191505092915050565b60006120c2603283612a22565b91507f4552433732313a207472616e7366657220746f206e6f6e20455243373231526560008301527f63656976657220696d706c656d656e74657200000000000000000000000000006020830152604082019050919050565b6000612128601c83612a22565b91507f4552433732313a20746f6b656e20616c7265616479206d696e746564000000006000830152602082019050919050565b6000612168602483612a22565b91507f4552433732313a207472616e7366657220746f20746865207a65726f2061646460008301527f72657373000000000000000000000000000000000000000000000000000000006020830152604082019050919050565b60006121ce601983612a22565b91507f4552433732313a20617070726f766520746f2063616c6c6572000000000000006000830152602082019050919050565b600061220e600a83612a22565b91507f6f6e6c792061646d696e000000000000000000000000000000000000000000006000830152602082019050919050565b600061224e602c83612a22565b91507f4552433732313a206f70657261746f7220717565727920666f72206e6f6e657860008301527f697374656e7420746f6b656e00000000000000000000000000000000000000006020830152604082019050919050565b60006122b4603883612a22565b91507f4552433732313a20617070726f76652063616c6c6572206973206e6f74206f7760008301527f6e6572206e6f7220617070726f76656420666f7220616c6c00000000000000006020830152604082019050919050565b600061231a602a83612a22565b91507f4552433732313a2062616c616e636520717565727920666f7220746865207a6560008301527f726f2061646472657373000000000000000000000000000000000000000000006020830152604082019050919050565b6000612380602983612a22565b91507f4552433732313a206f776e657220717565727920666f72206e6f6e657869737460008301527f656e7420746f6b656e00000000000000000000000000000000000000000000006020830152604082019050919050565b60006123e6602083612a22565b91507f4552433732313a206d696e7420746f20746865207a65726f20616464726573736000830152602082019050919050565b6000612426602c83612a22565b91507f4552433732313a20617070726f76656420717565727920666f72206e6f6e657860008301527f697374656e7420746f6b656e00000000000000000000000000000000000000006020830152604082019050919050565b600061248c602983612a22565b91507f4552433732313a207472616e73666572206f6620746f6b656e2074686174206960008301527f73206e6f74206f776e00000000000000000000000000000000000000000000006020830152604082019050919050565b60006124f2602f83612a22565b91507f4552433732314d657461646174613a2055524920717565727920666f72206e6f60008301527f6e6578697374656e7420746f6b656e00000000000000000000000000000000006020830152604082019050919050565b6000612558602183612a22565b91507f4552433732313a20617070726f76616c20746f2063757272656e74206f776e6560008301527f72000000000000000000000000000000000000000000000000000000000000006020830152604082019050919050565b60006125be603183612a22565b91507f4552433732313a207472616e736665722063616c6c6572206973206e6f74206f60008301527f776e6572206e6f7220617070726f7665640000000000000000000000000000006020830152604082019050919050565b61262081612b63565b82525050565b61262f81612b63565b82525050565b60006126418284612084565b915081905092915050565b60006126588285612084565b91506126648284612084565b91508190509392505050565b60006020820190506126856000830184611f96565b92915050565b60006080820190506126a06000830187611f96565b6126ad6020830186611f96565b6126ba6040830185612626565b81810360608301526126cc8184612012565b905095945050505050565b600060208201905081810360008301526126f18184611fa5565b905092915050565b600060208201905061270e6000830184612003565b92915050565b6000602082019050818103600083015261272e818461204b565b905092915050565b6000602082019050818103600083015261274f816120b5565b9050919050565b6000602082019050818103600083015261276f8161211b565b9050919050565b6000602082019050818103600083015261278f8161215b565b9050919050565b600060208201905081810360008301526127af816121c1565b9050919050565b600060208201905081810360008301526127cf81612201565b9050919050565b600060208201905081810360008301526127ef81612241565b9050919050565b6000602082019050818103600083015261280f816122a7565b9050919050565b6000602082019050818103600083015261282f8161230d565b9050919050565b6000602082019050818103600083015261284f81612373565b9050919050565b6000602082019050818103600083015261286f816123d9565b9050919050565b6000602082019050818103600083015261288f81612419565b9050919050565b600060208201905081810360008301526128af8161247f565b9050919050565b600060208201905081810360008301526128cf816124e5565b9050919050565b600060208201905081810360008301526128ef8161254b565b9050919050565b6000602082019050818103600083015261290f816125b1565b9050919050565b600060208201905061292b6000830184612626565b92915050565b6000604051905081810181811067ffffffffffffffff8211171561295857612957612ce8565b5b8060405250919050565b600067ffffffffffffffff82111561297d5761297c612ce8565b5b601f19601f8301169050602081019050919050565b600067ffffffffffffffff8211156129ad576129ac612ce8565b5b601f19601f8301169050602081019050919050565b6000819050602082019050919050565b600081519050919050565b600081519050919050565b600081519050919050565b6000602082019050919050565b600082825260208201905092915050565b600082825260208201905092915050565b600082825260208201905092915050565b600081905092915050565b6000612a4982612b63565b9150612a5483612b63565b9250827fffffffffffffffffffffffffffffffffffffffffffffffffffffffffffffffff03821115612a8957612a88612c5b565b5b828201905092915050565b6000612a9f82612b63565b9150612aaa83612b63565b925082612aba57612ab9612c8a565b5b828204905092915050565b6000612ad082612b63565b9150612adb83612b63565b925082821015612aee57612aed612c5b565b5b828203905092915050565b6000612b0482612b43565b9050919050565b60008115159050919050565b60007fffffffff0000000000000000000000000000000000000000000000000000000082169050919050565b600073ffffffffffffffffffffffffffffffffffffffff82169050919050565b6000819050919050565b82818337600083830152505050565b60005b83811015612b9a578082015181840152602081019050612b7f565b83811115612ba9576000848401525b50505050565b60006002820490506001821680612bc757607f821691505b60208210811415612bdb57612bda612cb9565b5b50919050565b6000612bec82612b63565b91507fffffffffffffffffffffffffffffffffffffffffffffffffffffffffffffffff821415612c1f57612c1e612c5b565b5b600182019050919050565b6000612c3582612b63565b9150612c4083612b63565b925082612c5057612c4f612c8a565b5b828206905092915050565b7f4e487b7100000000000000000000000000000000000000000000000000000000600052601160045260246000fd5b7f4e487b7100000000000000000000000000000000000000000000000000000000600052601260045260246000fd5b7f4e487b7100000000000000000000000000000000000000000000000000000000600052602260045260246000fd5b7f4e487b7100000000000000000000000000000000000000000000000000000000600052604160045260246000fd5b6000601f19601f8301169050919050565b612d3181612af9565b8114612d3c57600080fd5b50565b612d4881612b0b565b8114612d5357600080fd5b50565b612d5f81612b17565b8114612d6a57600080fd5b50565b612d7681612b63565b8114612d8157600080fd5b5056fea26469706673582212204239439d62f4831a687eb6511d51ed1e5bed6068dac7a8bb85ebf574ae92650a64736f6c63430008000033",
  "immutableReferences": {},
  "source": "pragma solidity ^0.8.0;\n\nimport './ERC721.sol';\n\n\ncontract Color is ERC721 {\n\n    uint public nextTokenId;\n    string[]  public colors;\n    mapping(string => bool) _colorExists;\n    address public admin;\n\n\n    constructor() ERC721(\"Color NFT\", \"COLOR\") public{\n        admin = msg.sender;\n    }\n\n    function mint(string memory _color) public {\n        require(msg.sender == admin, \"only admin\");\n        require(!_colorExists[_color]);\n        colors.push(_color);\n        _mint(msg.sender, nextTokenId);\n        _colorExists[_color] = true;\n        nextTokenId++;\n\n    }\n\n    function transfer (address from, address to, uint256 tokenId) public{\n        approve(from, tokenId);\n        super.safeTransferFrom(from, to, tokenId);\n    }\n\n    function getTokenCountOfAddress() public view returns(uint256){\n        return balanceOf(msg.sender);\n    }\n\n    function tokensOfOwner() public view returns(uint256[] memory) {\n        uint256 tokenCount = balanceOf(msg.sender);\n\n        if (tokenCount == 0) {\n            // Return an empty array\n            return new uint256[](0);\n        } else {\n            uint256[] memory result = new uint256[](tokenCount);\n            uint256 resultIndex = 0;\n\n            // We count on the fact that all cats have IDs starting at 1 and increasing\n            // sequentially up to the totalCat count.\n            uint256 tId;\n\n            for (tId = 0; tId <= nextTokenId-2; tId++) {\n                if (ownerOf(tId) == msg.sender) {\n                    result[resultIndex] = tId;\n                    resultIndex++;\n                }\n            }\n\n            return result;\n        }\n    }\n\n\n}\n",
  "sourcePath": "/home/anuj/Documents/upwork/erc721/src/contracts/Color.sol",
  "compiler": {
    "name": "solc",
    "version": "0.8.0+commit.c7dfd78e.Emscripten.clang"
  },
  "schemaVersion": "3.4.1",
  "updatedAt": "2021-05-14T16:09:50.307Z",
  "devdoc": {
    "kind": "dev",
    "methods": {
      "approve(address,uint256)": {
        "details": "See {IERC721-approve}."
      },
      "balanceOf(address)": {
        "details": "See {IERC721-balanceOf}."
      },
      "getApproved(uint256)": {
        "details": "See {IERC721-getApproved}."
      },
      "isApprovedForAll(address,address)": {
        "details": "See {IERC721-isApprovedForAll}."
      },
      "name()": {
        "details": "See {IERC721Metadata-name}."
      },
      "ownerOf(uint256)": {
        "details": "See {IERC721-ownerOf}."
      },
      "safeTransferFrom(address,address,uint256)": {
        "details": "See {IERC721-safeTransferFrom}."
      },
      "safeTransferFrom(address,address,uint256,bytes)": {
        "details": "See {IERC721-safeTransferFrom}."
      },
      "setApprovalForAll(address,bool)": {
        "details": "See {IERC721-setApprovalForAll}."
      },
      "supportsInterface(bytes4)": {
        "details": "See {IERC165-supportsInterface}."
      },
      "symbol()": {
        "details": "See {IERC721Metadata-symbol}."
      },
      "tokenURI(uint256)": {
        "details": "See {IERC721Metadata-tokenURI}."
      },
      "transferFrom(address,address,uint256)": {
        "details": "See {IERC721-transferFrom}."
      }
    },
    "version": 1
  },
  "userdoc": {
    "kind": "user",
    "methods": {},
    "version": 1
  }
}